:020000040800F2
:1000000000000220F5A70008898B0008918B0008EA
:10001000998B0008A18B0008A98B00080000000044
:10002000000000000000000000000000B18B00088C
:10003000BF8B000800000000CD8B0008DB8B0008A0
:1000400045A8000845A8000845A8000845A80008DC
:1000500045A8000845A8000845A8000845A80008CC
:1000600045A8000845A8000845A8000845A80008BC
:1000700045A8000845A8000845A8000845A80008AC
:1000800045A8000845A8000845A8000845A800089C
:1000900045A8000845A8000845A8000845A800088C
:1000A00045A8000845A8000845A8000845A800087C
:1000B00045A8000845A8000845A8000845A800086C
:1000C00045A8000845A8000845A8000845A800085C
:1000D00045A80008E98B0008FD8B0008118C00087A
:1000E000258C000845A8000845A8000845A8000878
:1000F00045A8000845A8000845A8000845A800082C
:1001000045A8000845A8000845A8000845A800081B
:10011000458C0008598C000845A8000845A800082F
:1001200045A8000845A8000845A8000845A80008FB
:1001300045A8000845A8000845A8000845A80008EB
:1001400045A8000845A8000845A8000845A80008DB
:1001500045A8000845A8000845A800086D8C0008BF
:1001600045A8000845A8000845A8000845A80008BB
:1001700045A8000845A8000845A8000800000000A0
:0801800045A8000845A800088D
:1001900010B5054C237833B9044B13B10448AFF3C1
:1001A00000800123237010BDB40200200000000075
:1001B0001425010808B5034B1BB103490348AFF3ED
:1001C000008008BD00000000B802002014250108CE
:1001D00001F0FF01102A2BDB10F0070F08D010F8F8
:1001E000013B013A8B422DD010F0070F42B3F6D1FC
:1001F000F0B441EA012141EA014122F007047FF015
:1002000000070023F0E80256083C85EA010586EA6B
:10021000010685FA47F5A3FA87F586FA47F6A5FAA7
:1002200087F68EB9EED1F0BC01F0FF0102F00702B3
:1002300032B110F8013B013A83EA010313B1F8D15E
:100240000020704701387047002D06BF354603383F
:10025000073815F0010F07D1013015F4807F02BF78
:10026000013015F4C03F0130F0BC0138704700BFC9
:10027000034613F8012B002AFBD1181A01387047E6
:1002800081F0004102E000BF83F0004330B54FEA47
:1002900041044FEA430594EA050F08BF90EA020FB4
:1002A0001FBF54EA000C55EA020C7FEA645C7FEA47
:1002B000655C00F0E2804FEA5454D4EB5555B8BF6A
:1002C0006D420CDD2C4480EA020281EA030382EADB
:1002D000000083EA010180EA020281EA0303362D6D
:1002E00088BF30BD11F0004F4FEA01314FF4801C40
:1002F0004CEA113102D0404261EB410113F0004F52
:100300004FEA03334CEA133302D0524263EB430308
:1003100094EA050F00F0A780A4F10104D5F1200EA6
:100320000DDB02FA0EFC22FA05F2801841F1000101
:1003300003FA0EF2801843FA05F359410EE0A5F1D5
:1003400020050EF1200E012A03FA0EFC28BF4CF006
:10035000020C43FA05F3C01851EBE37101F00045BC
:1003600007D54FF0000EDCF1000C7EEB00006EEBC9
:100370000101B1F5801F1BD3B1F5001F0CD3490853
:100380005FEA30004FEA3C0C04F101044FEA4452AA
:1003900012F5800F80F09A80BCF1004F08BF5FEA31
:1003A000500C50F1000041EB045141EA050130BD11
:1003B0005FEA4C0C404141EB0101013C28BFB1F523
:1003C000801FE9D291F0000F04BF01460020B1FA6E
:1003D00081F308BF2033A3F10B03B3F120020CDA41
:1003E0000C3208DD02F1140CC2F10C0201FA0CF01F
:1003F00021FA02F10CE002F11402D8BFC2F1200C84
:1004000001FA02F120FA0CFCDCBF41EA0C01904039
:10041000E41AA2BF01EB0451294330BD6FEA040482
:100420001F3C1CDA0C340EDC04F11404C4F120026D
:1004300020FA04F001FA02F340EA030021FA04F37F
:1004400045EA030130BDC4F10C04C4F1200220FAD6
:1004500002F001FA04F340EA0300294630BD21FA14
:1004600004F0294630BD94F0000F83F4801306BFDA
:1004700081F480110134013D4EE77FEA645C18BFCE
:100480007FEA655C29D094EA050F08BF90EA020F65
:1004900005D054EA000C04BF1946104630BD91EA5D
:1004A000030F1EBF0021002030BD5FEA545C05D160
:1004B0004000494128BF41F0004130BD14F580049F
:1004C0003CBF01F5801130BD01F0004545F0FE4113
:1004D00041F470014FF0000030BD7FEA645C1ABF48
:1004E000194610467FEA655C1CBF0B46024650EA7F
:1004F000013406BF52EA033591EA030F41F40021AB
:1005000030BD00BF90F0000F04BF0021704730B530
:100510004FF4806404F132044FF000054FF0000105
:1005200050E700BF90F0000F04BF0021704730B5C6
:100530004FF4806404F1320410F0004548BF40429B
:100540004FF000013EE700BF42004FEAE2014FEAF0
:1005500031014FEA02701FBF12F07F4393F07F4FCB
:1005600081F06051704732F07F4208BF704793F0CE
:100570007F4F04BF41F40021704730B54FF46074E1
:1005800001F0004521F000411CE700BF50EA0102E4
:1005900008BF704730B54FF000050AE050EA01028D
:1005A00008BF704730B511F0004502D5404261EBFD
:1005B00041014FF4806404F132045FEA915C3FF43E
:1005C000D8AE4FF003025FEADC0C18BF03325FEADB
:1005D000DC0C18BF033202EBDC02C2F1200300FA8C
:1005E00003FC20FA02F001FA03FE40EA0E0021FAB1
:1005F00002F11444BDE600BF70B54FF0FF0C4CF49F
:10060000E06C1CEA11541DBF1CEA135594EA0C0F50
:1006100095EA0C0F00F0DEF82C4481EA030621EA8B
:100620004C5123EA4C5350EA013518BF52EA0335C6
:1006300041F4801143F4801338D0A0FB02CE4FF078
:100640000005E1FB02E506F00042E0FB03E54FF0A8
:100650000006E1FB03569CF0000F18BF4EF0010EA0
:10066000A4F1FF04B6F5007F64F5407404D25FEA9C
:100670004E0E6D4146EB060642EAC62141EA55514F
:100680004FEAC52040EA5E504FEACE2EB4F1FD0C91
:1006900088BFBCF5E06F1ED8BEF1004F08BF5FEA0F
:1006A000500E50F1000041EB045170BD06F00046C1
:1006B00046EA010140EA020081EA0301B4EB5C046E
:1006C000C2BFD4EB0C0541EA045170BD41F4801166
:1006D0004FF0000E013C00F3AB8014F1360FDEBF8B
:1006E000002001F0004170BDC4F10004203C35DA67
:1006F0000C341BDC04F11404C4F1200500FA05F3EA
:1007000020FA04F001FA05F240EA020001F000428A
:1007100021F0004110EBD37021FA04F642EB060100
:100720005EEA430E08BF20EAD37070BDC4F10C042A
:10073000C4F1200500FA04F320FA05F001FA04F2EE
:1007400040EA020001F0004110EBD37041F10001DA
:100750005EEA430E08BF20EAD37070BDC4F12005E5
:1007600000FA05F24EEA020E20FA04F301FA05F24D
:1007700043EA020321FA04F001F0004121FA04F2F5
:1007800020EA020000EBD3705EEA430E08BF20EAC5
:10079000D37070BD94F0000F0FD101F000464000FF
:1007A00041EB010111F4801F08BF013CF7D041EA81
:1007B000060195F0000F18BF704703F00046520085
:1007C00043EB030313F4801F08BF013DF7D043EA56
:1007D0000603704794EA0C0F0CEA135518BF95EA0C
:1007E0000C0F0CD050EA410618BF52EA4306D1D193
:1007F00081EA030101F000414FF0000070BD50EAB2
:10080000410606BF1046194652EA430619D094EA3B
:100810000C0F02D150EA013613D195EA0C0F05D125
:1008200052EA03361CBF104619460AD181EA030179
:1008300001F0004141F0FE4141F470014FF0000031
:1008400070BD41F0FE4141F4780170BD70B54FF0CC
:10085000FF0C4CF4E06C1CEA11541DBF1CEA13554C
:1008600094EA0C0F95EA0C0F00F0A7F8A4EB05042E
:1008700081EA030E52EA03354FEA013100F0888025
:100880004FEA03334FF0805545EA131343EA1263EE
:100890004FEA022245EA111545EA10654FEA0026A3
:1008A0000EF000419D4208BF964244F1FD0404F55C
:1008B000407402D25B084FEA3202B61A65EB0305B8
:1008C0005B084FEA32024FF480104FF4002CB6EB75
:1008D000020E75EB030E22BFB61A754640EA0C00F5
:1008E0005B084FEA3202B6EB020E75EB030E22BF35
:1008F000B61A754640EA5C005B084FEA3202B6EB76
:10090000020E75EB030E22BFB61A754640EA9C0034
:100910005B084FEA3202B6EB020E75EB030E22BF04
:10092000B61A754640EADC0055EA060E18D04FEAC2
:10093000051545EA16754FEA06164FEAC30343EA62
:1009400052734FEAC2025FEA1C1CC0D111F4801F2F
:100950000BD141EA00014FF000004FF0004CB6E728
:1009600011F4801F04BF01430020B4F1FD0C88BFC7
:10097000BCF5E06F3FF6AFAEB5EB030C04BFB6EBD2
:10098000020C5FEA500C50F1000041EB045170BDC5
:100990000EF0004E4EEA113114EB5C04C2BFD4EBF2
:1009A0000C0541EA045170BD41F480114FF0000E76
:1009B000013C90E645EA060E8DE60CEA135594EAF2
:1009C0000C0F08BF95EA0C0F3FF43BAF94EA0C0FF5
:1009D0000AD150EA01347FF434AF95EA0C0F7FF46A
:1009E00025AF104619462CE795EA0C0F06D152EABE
:1009F00003353FF4FDAE1046194622E750EA4106A2
:100A000018BF52EA43067FF4C5AE50EA41047FF4B2
:100A10000DAF52EA43057FF4EBAE12E74FF0FF3C17
:100A200006E000BF4FF0010C02E000BF4FF0010CE8
:100A30004DF804CD4FEA410C7FEA6C5C4FEA430C61
:100A400018BF7FEA6C5C1BD001B050EA410C0CBFB0
:100A500052EA430C91EA030F02BF90EA020F002012
:100A6000704710F1000F91EA030F58BF994208BF79
:100A700090422CBFD8176FEAE37040F00100704736
:100A80004FEA410C7FEA6C5C02D150EA013C07D18D
:100A90004FEA430C7FEA6C5CD6D152EA033CD3D0D8
:100AA0005DF8040B704700BF8446104662468C46D2
:100AB0001946634600E000BF01B5FFF7B7FF002805
:100AC00048BF10F1000F01BD4DF808EDFFF7F4FF2E
:100AD0000CBF012000205DF808FB00BF4DF808EDB9
:100AE000FFF7EAFF34BF012000205DF808FB00BFDC
:100AF0004DF808EDFFF7E0FF94BF012000205DF8FE
:100B000008FB00BF4DF808EDFFF7CEFF94BF0120B2
:100B100000205DF808FB00BF4DF808EDFFF7C4FFAB
:100B200034BF012000205DF808FB00BF4FEA410CF4
:100B30007FEA6C5C02D150EA013C0AD14FEA430CD7
:100B40007FEA6C5C02D152EA033C02D14FF0000014
:100B500070474FF0010070474FEA410212F5001252
:100B600015D211D56FF47873B3EB625212D94FEAF4
:100B7000C12343F0004343EA505311F0004F23FADE
:100B800002F018BF404270474FF00000704750EA33
:100B9000013005D111F0004008BF6FF000407047F0
:100BA0004FF00000704700BF4A0011D212F500124A
:100BB00011D20DD56FF47873B3EB62520ED44FEAB5
:100BC000C12343F0004343EA505323FA02F0704735
:100BD0004FF00000704750EA013002D14FF0FF3073
:100BE00070474FF0000070474FEA4102B2F1E04316
:100BF00024BFB3F5001CDCF1FE5C0DD901F0004C04
:100C00004FEAC0024CEA5070B2F1004F40EB830053
:100C100008BF20F00100704711F0804F21D113F17F
:100C20003872BCBF01F00040704741F480114FEAB8
:100C30005252C2F11802C2F1200C10FA0CF320FA41
:100C400002F018BF40F001004FEAC1234FEAD3235E
:100C500003FA0CFC40EA0C0023FA02F34FEA4303C8
:100C6000CCE77FEA625307D150EA01331EBF4FF051
:100C7000FE4040F44000704701F0004040F0FE406C
:100C800040F40000704700BF7BB972B90029BEBFB5
:100C900000204FF0004106E008BF00281CBF6FF0A5
:100CA00000414FF0FF3000F0D3B9ADF1080C6DE911
:100CB00004CE002909DB002B1ADB00F04DF8DDF82B
:100CC00004E0DDE9022304B07047404261EB4101DA
:100CD000002B1BDB00F040F8DDF804E0DDE9022327
:100CE00004B0404261EB4101524263EB4303704761
:100CF000524263EB430300F02FF8DDF804E0DDE936
:100D0000022304B0404261EB41017047524263EB61
:100D1000430300F021F8DDF804E0DDE9022304B02C
:100D2000524263EB4303704753B94AB9002908BFE5
:100D300000281CBF4FF0FF314FF0FF3000F088B9A2
:100D4000ADF1080C6DE904CE00F006F8DDF804E022
:100D5000DDE9022304B070472DE9F047089D8E4677
:100D600004468846002B4AD18A42174662D9B2FA15
:100D700082F64EB1C6F1200301FA06F820FA03F319
:100D8000B74043EA0808B4404FEA174E1FFA87FC01
:100D9000B8FBFEF1230C0EFB118843EA084301FB6C
:100DA0000CF29A4209D9FB1801F1FF3080F0EA8079
:100DB0009A4240F2E78002393B449A1AA3B2B2FB4E
:100DC000FEF00EFB102243EA024300FB0CFC9C45A4
:100DD00009D9FB1800F1FF3280F0D6809C4540F223
:100DE000D3803B44023840EA0140A3EB0C030021CE
:100DF0001DB1F3400022C5E90032BDE8F0878B4207
:100E000005D90DB1C5E9000100210846F5E7B3FA9F
:100E100083F1002946D1734502D3824200F2058155
:100E2000841A6EEB030201209046002DE5D0C5E93F
:100E30000048E2E7002A00F09080B2FA82F6002E25
:100E400040F0A4808A1A030C4FEA174E80B2BCB25D
:100E50000121B2FBFEFC0EFB1C2243EA024304FB11
:100E60000CF29A4207D9FB180CF1FF3802D29A42D1
:100E700000F2E080C4469B1AB3FBFEF20EFB123375
:100E800040EA034302FB04F49C4207D9FB1802F139
:100E9000FF3002D29C4200F2CA8002461B1B42EA8B
:100EA0000C40A5E7C1F120068B4022FA06F71F434C
:100EB0000EFA01F420FA06F32EFA06FE4FEA17495D
:100EC000234300FA01F81FFA87FCBEFBF9F01C0C63
:100ED00009FB10EE44EA0E4400FB0CFEA64502FAA4
:100EE00001F209D93C1900F1FF3A80F09C80A64537
:100EF00040F2998002383C44A4EB0E041FFA83FEB2
:100F0000B4FBF9F309FB13444EEA044403FB0CFC65
:100F1000A44508D93C1903F1FF3E80F08280A44526
:100F20007FD9023B3C4443EA0040A4EB0C04A0FB05
:100F300002EC64457346E14662D35FD05DB1B8EB25
:100F4000030264EB090404FA06F622FA01F31E43D5
:100F5000CC40C5E9006400214FE7B1FBF2FC010C75
:100F600041EA0E4180B240EA01423B4638463C46E7
:100F7000B846BE462026B1FBF7F1A2EB080241EAD3
:100F80000C4166E7014618E710462CE7C6F120023F
:100F90002EFA02F3B740B14020FA02F24FEA174EA0
:100FA0000A43B3FBFEF8BCB20EFB1833110C41EA46
:100FB000034108FB04F9B04089454FEA104380B271
:100FC0003ED9791808F1FF3C01D289451FD8A1EB21
:100FD0000901B1FBFEF909FB04F80EFB191192B2ED
:100FE00042EA0142424529D2BA1809F1FF31C4D27E
:100FF0004245C2D2A9F102013A44BEE7F0459DD272
:10100000BEEB02036CEB070C0138E14696E7A7EB59
:1010100009094944A8F1020CB1FBFEF909FB04F8E7
:10102000DBE773467FE7504666E70846FDE63B444C
:10103000023A33E7ACF1020C3B441CE749469CE71B
:10104000A1EB0901C446B1FBFEF909FB04F8C4E7B2
:10105000704700BF80B588B004AF0346FB71324BC8
:1010600093F82430002B25D0FB79002B02D00223EB
:10107000FB7301E00023FB732B4B5B681B785B0069
:1010800099B2294B1B68DB7B1A4605230293012387
:10109000019307F10F030093012324480AF036FA65
:1010A0000346002B02D04FF0FF3339E0FA7B1E4B92
:1010B0005A7434E01C4B9B7A002B02D14FF0FF3363
:1010C0002EE0FB79002B05D0174B5B7C002B01D069
:1010D000002325E0FB79002B02D00123FB7301E004
:1010E0000023FB73104B5B681B785B0099B20E4BBF
:1010F0001B68DB7B1A46052302930123019307F14A
:101100000F030093012309480AF000FA0346002B5D
:1011100002D04FF0FF3303E0FA7B034B5A740023F5
:1011200018461037BD4680BD000000203403002063
:1011300080B586B004AF80233B70954B5B681B780D
:101140005B0099B2924B1B689B7C1A460523029365
:10115000012301933B46009301238E480AF0D6F900
:101160000346002B02D04FF0FF330CE1642009F05E
:10117000DDFB00233B70864B5B681B785B0099B2FC
:10118000834B1B689B7C1A46052302930123019322
:101190003B46009301237F480AF0B8F90346002B31
:1011A00002D04FF0FF33EEE0794B5B681B785B00B9
:1011B00099B2774B1B689B7D1A4605230293062341
:1011C00001933B460093012372480AF099FA0346C3
:1011D000002B02D04FF0FF33D5E07B795BB29B0050
:1011E0005BB203F004035AB2FB785BB25B005BB204
:1011F00003F002035BB213435AB27B785BB203F095
:1012000001035BB213435BB2FB71FB79002B15D07A
:10121000FB79012B03D15E4B0122DA7441E0FB79AB
:10122000022B03D15A4B0022DA743AE0FB791946BB
:1012300059480EF0E9FB4FF0FF33A4E0544B5B68D4
:101240001B785B0099B2524B1B68DB781A4605236A
:101250000293012301933B46009301234D480AF07A
:101260004FFA0346002B02D04FF0FF338BE03B7860
:1012700003F00F03FB71FB79002B05D147480EF0FB
:101280002BFC4FF0FF337EE0FB79042B06D1444862
:101290000EF022FC3E4B0122DA7402E03C4B0022AD
:1012A000DA743B4BFF229A72394BFF221A72384B89
:1012B000FF225A72364BFF22DA72354B4FF6FF721D
:1012C000DA81334BFF221A74314BFF229A74304B70
:1012D00001221A732E4B012283F822202C4B00226C
:1012E00083F823202A4B00225A75294B00221A75B5
:1012F0000C2200212B480EF0DFFC254B002283F846
:101300002420234B002283F82520214B0022DA845D
:101310004FF4FA6000F076FA0346002B02D04FF04B
:10132000FF3330E0022000F007FB0346002B02D021
:101330004FF0FF3327E02A2000F0AEFB0346002BDE
:1013400002D04FF0FF331EE0322000F019FC0346BC
:10135000002B02D04FF0FF3315E0002000F00AFD13
:101360000346002B02D04FF0FF330CE0002000F0CA
:1013700089FE0346002B02D04FF0FF3303E000202C
:1013800000F04AFD002318460837BD4680BD00BF67
:1013900000000020340300203025010858250108F2
:1013A000A82501081600002080B588B004AF0346C8
:1013B000FB71FB79282B02D94FF0FF337DE0FB79DD
:1013C000002B25D1002000F05BFF00233B73072397
:1013D0007B733C4B5B681B785B0099B2394B1B6895
:1013E0009B7C1A46052302930223019307F10C0309
:1013F0000093012334480AF089F80346002B02D0F9
:101400004FF0FF3359E02F4B00221A75002354E0B0
:10141000012000F035FF20233B73FB79012B05D120
:1014200000237B73052000F037FB16E0FB79052BCA
:1014300005D801237B73052000F02EFB0DE0FB791E
:10144000142B05D802237B730A2000F025FB04E04F
:1014500003237B73142000F01FFB7B7B5BB29B019B
:101460005BB243F007035BB2DBB27B73154B5B6887
:101470001B785B0099B2134B1B689B7C1A460523B3
:1014800002930223019307F10C03009301230E48FA
:101490000AF03CF80346002B02D04FF0FF330CE07B
:1014A000084B08229A72074B00221A73054B01223F
:1014B0001A75002000F05EFC002318461037BD4668
:1014C00080BD00BF000000203403002080B586B03E
:1014D00004AF9E4B9B7A002B02D14FF0FF3353E1B8
:1014E0000023FB71994B5B681B785B0099B2974BAB
:1014F0001B68DB7B1A460523029301230193FB1D26
:101500000093012392480AF001F80346002B02D011
:101510004FF0FF3338E18D4B5B681B785B0099B26D
:101520008A4B1B685B791A460523029301230193BA
:10153000FB1D00930123864809F0E8FF0346002BBA
:1015400002D04FF0FF331FE1804B5B681B785B00DC
:1015500099B27E4B1B681B791A460523029301231F
:101560000193FB1D00930123794809F0CFFF034647
:10157000002B02D04FF0FF3306E1744B93F8243078
:10158000002B7ED00C23FB71704B5B681B785B00DB
:1015900099B26E4B1B681B791A46052302930123EF
:1015A0000193FB1D00930123694809F0AFFF034637
:1015B000002B02D04FF0FF33E6E0C023FB71634BFA
:1015C0009B7A03F00103002B04D0FB7943F0200346
:1015D000DBB2FB715D4B5B681B785B0099B25B4BC8
:1015E0001B681B791A460523029301230193FB1DF7
:1015F00000930123564809F089FF0346002B02D0CF
:101600004FF0FF33C0E0514B5B7C002B02D0022334
:10161000FB7101E00023FB714C4B5B681B785B00A6
:1016200099B24A4B1B68DB7B1A46052302930123C0
:101630000193FB1D00930123454809F067FF034612
:10164000002B02D04FF0FF339EE00023FB713F4B95
:101650005B681B785B0099B23C4B1B685B791A4650
:101660000523029301230193FB1D009301233848B6
:1016700009F04CFF0346002B00F085804FF0FF334C
:1016800082E00423FB71314B5B681B785B0099B2ED
:101690002E4B1B681B791A460523029301230193E5
:1016A000FB1D009301232A4809F030FF0346002B5D
:1016B00002D04FF0FF3367E0244B9B7C002B05D119
:1016C000224B9B7A03F00103002B02D14023FB71D4
:1016D00001E06023FB711D4B5B681B785B0099B2D6
:1016E0001A4B1B681B791A460523029301230193A9
:1016F000FB1D00930123164809F008FF0346002B49
:1017000002D04FF0FF333FE0104B5B7C002B02D048
:101710000123FB7101E00023FB710C4B5B681B781C
:101720005B0099B2094B1B68DB7B1A4605230293C9
:1017300001230193FB1D00930123054809F0E6FEF8
:101740000346002B06D04FF0FF331DE000000020C1
:10175000340300200E4B5B681B785B0099B20C4B86
:101760001B685B791A460523029301230193094BF9
:1017700000930123084809F0C9FE0346002B02D05C
:101780004FF0FF3300E0002318460837BD4680BD08
:1017900000000020100000203403002080B483B03B
:1017A00000AF7860164B1B7A032B1ED801A252F8AB
:1017B00023F000BFC5170008CD170008D717000891
:1017C000E11700087B68FA221A8012E07B684FF468
:1017D000FA721A800DE07B684FF47A721A8008E082
:1017E0007B684FF4FA621A8003E07B6800221A805B
:1017F00000BF002318460C37BD465DF8047B7047D8
:101800000000002080B588B004AF0346FB802B4B5E
:101810009B7A002B02D14FF0FF334AE0FB88B3F5EF
:10182000FA6F17D0B3F5FA6F17DCB3F57A7F0ED0E5
:10183000B3F57A7F11DCFA2B03D0B3F5FA7F03D02E
:101840000BE00023FB730BE00823FB7308E010237D
:10185000FB7305E01823FB7302E04FF0FF3328E031
:10186000164B1A7AFB7BDB08DBB29A4201D10023CC
:101870001FE0124B5B681B785B0099B20F4B1B6833
:101880009B791A46052302930123019307F10F0365
:10189000009301230A4809F039FE0346002B02D0C9
:1018A0004FF0FF3305E0FB7BDB08DAB2034B1A7223
:1018B000002318461037BD4680BD00BF0000002041
:1018C0003403002080B483B000AF7860194B5B7A9A
:1018D000032B1BD801A252F823F000BFED1800081B
:1018E000F5180008FD180008051900087B68022299
:1018F0001A700EE07B6804221A700AE07B680822E6
:101900001A7006E07B6810221A7002E04FF0FF3375
:101910000AE0084BDB7C002B05D07B681B785B0062
:10192000DAB27B681A70002318460C37BD465DF8A2
:10193000047B70470000002080B588B004AF0346E8
:10194000FB71344B9B7A002B02D14FF0FF335DE0EB
:10195000FB79023B0E2B2DD801A252F823F000BFD9
:101960009D190008B5190008A3190008B519000849
:10197000B5190008B5190008A9190008B51900081B
:10198000B5190008B5190008B5190008B5190008FF
:10199000B5190008B5190008AF1900080023FB733A
:1019A0000BE00823FB7308E01023FB7305E018230A
:1019B000FB7302E04FF0FF3328E0164B5A7AFB7BB3
:1019C000DB08DBB29A4201D100231FE0114B5B68B8
:1019D0001B785B0099B20F4B1B68DB791A46052315
:1019E00002930123019307F10F03009301230A4897
:1019F00009F08CFD0346002B02D04FF0FF3305E0C9
:101A0000FB7BDB08DAB2034B5A720023184610370F
:101A1000BD4680BD000000203403002080B483B0A8
:101A200000AF78601B4BDB7A013B052B26D801A267
:101A300052F823F04D1A0008551A00085D1A0008E4
:101A4000651A00086D1A0008751A00087B68BC2228
:101A50001A8017E07B6862221A8013E07B682A22D2
:101A60001A800FE07B6814221A800BE07B680A2240
:101A70001A8007E07B6805221A8003E07B68002259
:101A80001A8000BF002318460C37BD465DF8047B62
:101A9000704700BF0000002080B588B004AF034647
:101AA000FB80284B9B7A002B02D14FF0FF3344E0A0
:101AB000FB88BB2B02D90123FB7319E0FB88612B48
:101AC00002D90223FB7313E0FB88292B02D90323DD
:101AD000FB730DE0FB88132B02D90423FB7307E093
:101AE000FB88092B02D90523FB7301E00623FB7356
:101AF000144BDA7AFB7B9A4201D100231DE0114B93
:101B00005B681B785B0099B20E4B1B689B781A468A
:101B1000052302930123019307F10F03009301238F
:101B2000094809F0F3FC0346002B02D04FF0FF33C5
:101B300003E0FA7B034BDA72002318461037BD46E8
:101B400080BD00BF000000203403002080B483B0BB
:101B500000AF7860094B93F82430002B02D04FF08F
:101B6000FF3304E0054BDA897B681A8000231846AE
:101B70000C37BD465DF8047B704700BF00000020B5
:101B800080B588B004AF0346FB80344B9B7A002BB2
:101B900002D14FF0FF335CE0304B93F82430002B40
:101BA00002D04FF0FF3354E02C4B1B7D002B0FD0A5
:101BB000FB88002B09D0FB88282B06D8FB88DBB2DA
:101BC0001846FFF7F1FB002343E00020FFF7ECFB92
:101BD000FB88032B02D80423FB8006E0FB88B3F5C7
:101BE0007A7F02D94FF47A73FB80FB884FF47A72C4
:101BF00092FBF3F3DBB2013BDBB2FB73174B5B6889
:101C00001B785B0099B2154B1B685B781A4605235D
:101C100002930123019307F10F030093012310485E
:101C200009F074FC0346002B02D04FF0FF3310E0A4
:101C3000FB7B01334FF47A7292FBF3F39AB2074BBA
:101C4000DA81064BDB895B089BB21846FFF724FF5D
:101C5000002318461037BD4680BD00BF000000209D
:101C60003403002080B483B000AF7860144B1B7A3B
:101C7000032B1BD801A252F823F000BF8D1C0008D3
:101C8000951C00089D1C0008A51C00087B680D4AD7
:101C90001A600EE07B680C4A1A600AE07B680B4A07
:101CA0001A6006E07B680A4A1A6002E04FF0FF33D0
:101CB00000E0002318460C37BD465DF8047B7047F2
:101CC000000000200000034300008342333303423E
:101CD0003333834180B483B000AF78601B4B5B7AB1
:101CE000032B1FD801A252F823F000BFFD1C0008EF
:101CF000071D0008111D00081B1D00087B684FF41C
:101D000080421A8011E07B6841F69C721A800CE0D8
:101D10007B684FF480521A8007E07B684FF40062C2
:101D20001A8002E04FF0FF330AE0084BDB7C002B07
:101D300005D07B681B885B089AB27B681A800023F9
:101D400018460C37BD465DF8047B70470000002044
:101D500080B483B000AF7860054B1A7C7B681A7042
:101D6000002318460C37BD465DF8047B704700BF62
:101D70000000002080B584B000AF0346FB71002353
:101D8000FB60FB7923F00103FB71224B93F82430B5
:101D9000002B01D0002338E01E4B9B7A002B02D190
:101DA0004FF0FF3331E01B4B1B7CFB72194B9A7ACF
:101DB000FB791340DAB2174B1A74164B1B7CFA7975
:101DC0009A4203D04FF0FF33FB6001E00023FB6039
:101DD000FB79002B03D10F4B1B7D002B03D001207F
:101DE000FFF738F902E00020FFF734F9FB79002B08
:101DF0000AD0FFF76BFB0346002B05D0054AFB7AA0
:101E000013744FF0FF3300E0FB6818461037BD46EF
:101E100080BD00BF0000002080B588B004AF03463D
:101E2000FB71FB7903F07003002B02D00123FB73DD
:101E300007E0FB79002B02D00023FB7301E0402375
:101E4000FB73404B5B681B785B0099B23D4B1B6892
:101E50009B7C1A46052302930123019307F10F038C
:101E600000930123384809F051FB0346002B05D0AD
:101E7000344B00229A724FF0FF335FE0FB7B23F07C
:101E80004003DAB22F4B1A730023FB73FB7903F084
:101E90004003002B04D1FB7B43F00403DBB2FB7354
:101EA000FB7903F02003002B04D1FB7B43F00203FA
:101EB000DBB2FB73FB7903F01003002B04D1FB7B37
:101EC00043F00103DBB2FB73FB7903F00803002B43
:101ED00004D1FB7B43F03803DBB2FB73194B5B6827
:101EE0001B785B0099B2174B1B68DB7C1A460523F5
:101EF00002930123019307F10F030093012312487A
:101F000009F004FB0346002B05D00E4B00229A7209
:101F10004FF0FF3312E0FB79002B05D0FB79082B43
:101F200002D0002000F0ACF9064AFB799372054B11
:101F300000221A75322008F0F9FC002318461037E9
:101F4000BD4680BD000000203403002080B58AB06B
:101F500004AF0346B9607A60FB81484B93F82430A4
:101F6000002B02D14FF0FF3383E0444B9B7A002BD0
:101F700002D14FF0FF337CE0404B5B681B785B0085
:101F800099B23E4B1B689B7A1A46052302930223A3
:101F9000019307F1140300930123394809F0B0FBC2
:101FA0000346002B02D04FF0FF3362E03B7D1BB2B3
:101FB0001B021AB27B7D1BB213431BB2FB82FA8A4F
:101FC000FB899A4205D27B6800221A704FF0FF33DA
:101FD0004FE02A4B5B685B885B089BB2FA8A9A42A7
:101FE00023D9264B5B681B785B0099B2234B1B6897
:101FF0005B7C1A46052302930123019307F1140326
:10200000009301231E4809F07BFB0346002B02D0FE
:102010004FF0FF332DE03B7D03F01003002B04D085
:10202000FFF754FA6FF0010323E0144B5B681B7851
:102030005B0099B2114B1B68DB7A1A4605230293A9
:10204000FB890193BB68009301230D4809F058FBFD
:102050000346002B02D04FF0FF330AE0FA8AFB89D7
:10206000B2FBF3F39BB2DBB2013BDAB27B681A70CE
:10207000002318461837BD4680BD00BF0000002071
:102080003403002080B588B004AF0346FB717A4B5F
:102090009B7CFA799A4201D10023E8E0FB79002B7E
:1020A0006BD0754B5B681B785B0099B2724B1B68F9
:1020B0001B791A46052302930123019307F10F03AD
:1020C000009301236D4809F01BFB0346002B02D04F
:1020D0004FF0FF33CBE0FB7B23F02003DBB2FB733D
:1020E000654B5B681B785B0099B2634B1B681B797F
:1020F0001A46052302930123019307F10F0300936E
:1021000001235E4809F002FA0346002B02D04FF08B
:10211000FF33ACE0032008F009FC0223FB73564BAD
:1021200093F82230002B04D0FB7B63F07F03DBB2FB
:10213000FB73514B93F82330002B04D0FB7B43F00F
:102140003003DBB2FB734C4B5B681B785B0099B2CE
:10215000494B1B681B7D1A460523029301230193FB
:1021600007F10F0300930123444809F0CFF9034618
:10217000002B78D04FF0FF3379E03F4B5B681B7842
:102180005B0099B23C4B1B681B791A4605230293EE
:102190000123019307F10F0300930123374809F04E
:1021A000AFFA0346002B02D04FF0FF335FE0324B13
:1021B0009B7A03F00103002B05D0FB7B43F0200347
:1021C000DBB2FB7304E0FB7B23F02003DBB2FB7389
:1021D000294B5B681B785B0099B2274B1B681B7906
:1021E0001A46052302930123019307F10F0300937D
:1021F0000123224809F08AF90346002B02D04FF050
:10220000FF3334E0032008F091FB1B4B93F822309E
:10221000002B02D08023FB7301E00023FB73164BDD
:1022200093F82330002B04D0FB7B43F03003DBB268
:10223000FB73114B5B681B785B0099B20E4B1B68FC
:102240001B7D1A46052302930123019307F10F0317
:1022500000930123094809F059F90346002B02D0E5
:102260004FF0FF3303E0044AFB79937400231846D0
:102270001037BD4680BD00BF0000002034030020A1
:1022800080B588B004AF0346FB71234B93F823302D
:10229000FA799A4201D1002339E0FB79002B02D070
:1022A0003023FB7301E00023FB731B4B9B7C002B53
:1022B00004D0FB7B43F00203DBB2FB73164B93F8B5
:1022C0002230002B04D0FB7B63F07F03DBB2FB7377
:1022D000114B5B681B785B0099B20F4B1B681B7D31
:1022E0001A46052302930123019307F10F0300937C
:1022F00001230A4809F00AF90346002B02D04FF0E7
:10230000FF3304E0044AFB7982F8233000231846A7
:102310001037BD4680BD00BF000000203403002000
:1023200080B58AB004AF7860454B5B681B785B0072
:1023300099B2052302930423019307F1100300933C
:1023400001230D223F4809F0DBF90346002B01D0A1
:10235000072371E03B7CDB105BB203F01C035AB235
:10236000FB7C1B115BB203F003035BB213435BB254
:10237000DBB23B737B7CDB105BB203F01C035AB215
:10238000FB7C9B105BB203F003035BB213435BB2B5
:10239000DBB27B73BB7CDB105BB203F01C035AB275
:1023A000FB7C5BB203F003035BB213435BB2DBB2B3
:1023B000BB730023FB753BE0FB7D18333B4413F8F4
:1023C0000C3C002B07D1FB7D9B007A6813444FF037
:1023D00000021A6029E0FB7D9B007A6813441A4AC8
:1023E0001A600FE0FB7D9B007A681344D3ED007AFE
:1023F000FB7D9B007A6813449FED147A67EE877A21
:10240000C3ED007AFB7D03F118023A4412F80C2C5C
:10241000013AD1B203F118023A4402F80C1C183305
:102420003B4413F80C3C002BDCD1FB7D0133FB75E6
:10243000FB7D022BC0D9002318461837BD4680BD4E
:1024400000000020340300207B14AE3E1D5A843F60
:1024500080B58AB000AF7860396000233B6207F135
:102460000C031846FFF75CFF00237B6263E07B6A86
:102470009B007A6813441A687B6A9B0039680B4496
:102480001B68D31A002BB8BF5B4207EE903AB8EE38
:10249000E77ADFED2D6AC7EE267AC7ED077A7B6A09
:1024A0009B0028333B441C3BD3ED007AF5EE407A89
:1024B000F1EE10FA23D07B6A9B0028333B441C3B8F
:1024C00093ED007AD7ED076AC6EE877AB7EE007A09
:1024D00077EEC77AC7ED067AD7ED067AF0EEE77A9F
:1024E0009FED1A7AF4EEC77AF1EE10FA20DD0122A0
:1024F0007B6A02FA03F33A6A13433B6218E09FEDEA
:10250000147AD7ED077AF4EEC77AF1EE10FA08D410
:102510009FED107AD7ED077AF4EEC77AF1EE10FA54
:1025200006DD01227B6A02FA03F33A6A13433B6237
:102530007B6A01337B627B6A022B98DD3B6A18461B
:102540002837BD4680BD00BF00008047295C0F3E94
:102550009A99993E3333733F80B58CB004AF78605D
:1025600039600023BB61594B5B681B785B0099B2F3
:10257000052302930323019307F10803009301232A
:102580000D22534809F0BCF80346002B01D0072365
:1025900097E03B7A03F01F03DBB23B727B7A03F0D8
:1025A0001F03DBB27B72BB7A03F01F03DBB2BB728B
:1025B0000023FB6180E0FB699B007A6813441A6882
:1025C000FB699B0039680B441B68D31A002BB8BF0A
:1025D0005B4207EE903AB8EEE77ADFED3E6AC7EE6F
:1025E000267AC7ED047A07F10802FB6913441B78C9
:1025F000002B45D0DFED387AB8EE677ADFED376A29
:10260000C6EE877AC7ED057A07E0D7ED057A9FED2C
:10261000347A67EE877AC7ED057A07F10802FB691D
:1026200013441B78013BD9B207F10802FB6913443C
:102630000A461A7007F10802FB6913441B78002B45
:10264000E3D1D7ED046A97ED057AC6EE877AB7EE47
:10265000007A77EEC77AC7ED037AD7ED037AF0EE0A
:10266000E77A9FED207AF4EEC77AF1EE10FA20DDDA
:102670000122FB6902FA03F3BA691343BB6118E054
:10268000B2EE047AD7ED047AF4EEC77AF1EE10FADE
:1026900008D49FED157AD7ED047AF4EEC77AF1EEFF
:1026A00010FA06DD0122FB6902FA03F3BA6913434B
:1026B000BB61FB690133FB61FB69022B7FF77BAFD9
:1026C000BB6918462037BD4680BD00BF0000002012
:1026D00034030020000080478300000000B04C4518
:1026E00054E3853F295C0F3E0000D2422DE9B04FF4
:1026F000BCB004AFC7F8B400C7F8B010134687F8F1
:10270000AF30012387F8CC30002387F8CD309C4BC5
:102710005B681B785B0099B2994B1B689B7C1A46DF
:10272000052302930223019307F1CC0300930123B5
:10273000944808F0EBFE0346002B02D04FF0FF3325
:10274000DCE3C82008F0F2F8002387F8CC308C4B8B
:102750005B681B785B0099B2894B1B68DB7B1A4670
:10276000052302930123019307F1CC030093012376
:10277000844808F0CBFE0346002B02D04FF0FF3315
:10278000BCE37F4B5B681B785B0099B27C4B1B689A
:102790005B791A46052302930123019307F1CC03C9
:1027A00000930123774808F0B1FE0346002B02D0C6
:1027B0004FF0FF33A2E3724B5B681B785B0099B26A
:1027C0006F4B1B689B7C1A460523029301230193E0
:1027D00007F1CC03009301236A4808F097FE0346F3
:1027E000002B02D04FF0FF3388E3654B5B681B780A
:1027F0005B0099B2624B1B68DB7D1A46052302938E
:102800000123019307F1CC03009301235D4808F0F5
:102810007DFE0346002B02D04FF0FF336EE3584B92
:102820005B681B785B0099B2554B1B681B791A4695
:10283000052302930123019307F1CC0300930123A5
:10284000504808F063FE0346002B02D04FF0FF33E0
:1028500054E30C2387F8CC30494B5B681B785B0052
:1028600099B2474B1B681B791A4605230293012333
:10287000019307F1CC0300930123424808F046FE80
:102880000346002B02D04FF0FF3337E30F2008F050
:102890004DF83B4B9B6A5B7A87F8CC30384B5B68D2
:1028A0001B785B0099B2364B1B689B781A46052350
:1028B00002930123019307F1CC03009301233148D4
:1028C00008F024FE0346002B02D04FF0FF3315E33F
:1028D0002B4B9B6A1B7A87F8CC30294B5B681B78A3
:1028E0005B0099B2264B1B685B781A46052302935E
:1028F0000123019307F1CC0300930123214808F041
:1029000005FE0346002B02D04FF0FF33F6E297F8A6
:10291000AF30002B08D01A4B9B6A9B7A63F01F03E1
:10292000DBB287F8CC3004E0154B9B6A9B7A87F8C2
:10293000CC30134B5B681B785B0099B2104B1B6863
:102940009B791A46052302930123019307F1CC03D7
:10295000009301230B4808F0D9FD0346002B02D059
:102960004FF0FF33CAE297F8AF30002B0CD0044B86
:102970009B6ADB7A63F01F03DBB287F8CC3006E09A
:102980000000002034030020182387F8CC30734B5C
:102990005B681B785B0099B2704B1B68DB791A4649
:1029A000052302930123019307F1CC030093012334
:1029B0006B4808F0ABFD0346002B02D04FF0FF330D
:1029C0009CE297F8AF30002B02D0C82007F0AEFF92
:1029D000402387F8CC30614B5B681B785B0099B271
:1029E0005E4B1B681B791A46052302930123019352
:1029F00007F1CC0300930123594808F087FD0346F3
:102A0000002B02D04FF0FF3378E2782387F8CC30E8
:102A1000524B5B681B785B0099B2504B1B685B792B
:102A20001A46052302930123019307F1CC03009377
:102A300001234B4808F06AFD0346002B02D04FF0FB
:102A4000FF335BE23223184607F070FF002387F85C
:102A5000CC30424B5B681B785B0099B23F4B1B68E4
:102A60005B791A46052302930123019307F1CC03F6
:102A7000009301233A4808F049FD0346002B02D099
:102A80004FF0FF333AE2354B5B681B785B0099B23D
:102A9000324B1B689B7A1A4605230293022301934B
:102AA00007F1CC03009301232D4808F029FE0346CB
:102AB000002B02D04FF0FF3320E297F8CC301BB24E
:102AC0001B021AB297F8CD301BB213431BB2A7F802
:102AD000DC30B7F8DC20234BA3FB0223DB089BB2DE
:102AE00087F8DB30D7F8B43003F1080100230B601E
:102AF000D7F8B4301A1D0B6813601268D7F8B430D9
:102B00001A60D7F8B03003F1080100230B60D7F842
:102B1000B0301A1D0B6813601268D7F8B0301A6015
:102B2000002387F8DF30B0E00C4B5B681B785B005C
:102B300099B20A4B1B68DB7A1A46052302930C23D1
:102B4000019307F1CC0300930123054808F0D8FD59
:102B50000346002B08D04FF0FF33CFE100000020E8
:102B600034030020ABAAAAAA97F8CC301BB21B02F0
:102B70001AB297F8CD301BB213431BB2A7F8C4307A
:102B800097F8CE301BB21B021AB297F8CF301BB2A7
:102B900013431BB2A7F8C63097F8D0301BB21B0204
:102BA0001AB297F8D1301BB213431BB2A7F8C83042
:102BB000D7F8B0301A68B7F9C4301A44D7F8B03033
:102BC0001A60D7F8B03004331968B7F9C630184620
:102BD000D7F8B0301A1D0B181360D7F8B03008338F
:102BE0001968B7F9C8301846D7F8B03003F10802B1
:102BF0000B18136097F8D2301BB21B021AB297F869
:102C0000D3301BB213431BB2A7F8BC3097F8D430B3
:102C10001BB21B021AB297F8D5301BB213431BB27A
:102C2000A7F8BE3097F8D6301BB21B021AB297F83D
:102C3000D7301BB213431BB2A7F8C030D7F8B4305B
:102C40001A68B7F9BC301A44D7F8B4301A60D7F80C
:102C5000B43004331968B7F9BE301846D7F8B43029
:102C60001A1D0B181360D7F8B43008331968B7F978
:102C7000C0301846D7F8B43003F108020B181360BF
:102C800097F8DF30013387F8DF3097F8DF2097F8C7
:102C9000DB309A42FFF448AFD7F8B4301B68DA173C
:102CA0001C4615462314C7F8A4302304C7F8A030E7
:102CB00083220023C7F89820C7F89C30D7E9262341
:102CC000D7E92801FDF7E0FF02460B4610461946FA
:102CD00097F8DB300022C7F89030C7F89420D7E986
:102CE0002423FDF7D1FF02460B46D7F8B4301A6013
:102CF000D7F8B43004331B68DA17984691464FEA88
:102D00002843C7F88C304FEA0843C7F8883083223D
:102D10000023C7F88020C7F88430D7E92023D7E9FB
:102D20002201FDF7B1FF02460B461046194697F8FF
:102D3000DB300022BB67FA67D7E91E23FDF7A4FF4B
:102D400002460B4610461946D7F8B4301A1D034602
:102D50001360D7F8B43008331B68DA179A469346E5
:102D60004FEA2A437B674FEA0A433B6783220023EB
:102D7000BA66FB66D7E91A23D7E91C01FDF784FF81
:102D800002460B461046194697F8DB3000223B6698
:102D90007A66D7E91823FDF777FF02460B461046FF
:102DA0001946D7F8B43003F1080203461360D7F888
:102DB000B0301B68DA17BB65FA65D7E916120B4607
:102DC0001B147B650B461B043B654FF4006200231C
:102DD000BA64FB64D7E91223D7E91401FDF754FF65
:102DE00002460B461046194697F8DB3000223B643A
:102DF0007A64D7E91023FDF747FF02460B46D7F860
:102E0000B0301A60D7F8B03004331B68DA17BB63F0
:102E1000FA63D7E90E120B461B147B630B461B04A7
:102E20003B634FF400620023BA62FB62D7E90A23D6
:102E3000D7E90C01FDF728FF02460B46104619465C
:102E400097F8DB3000223B627A62D7E90823FDF76E
:102E50001BFF02460B4610461946D7F8B030043324
:102E600002461A60D7F8B03008331B68DA17BB6126
:102E7000FA61D7E906120B461B147B610B461B0453
:102E80003B614FF400620023BA60FB60D7E9022384
:102E9000D7E90401FDF7F8FE02460B461046194635
:102EA00097F8DB3000223B607A60D7E90023FDF71A
:102EB000EBFE02460B4610461946D7F8B0300833F1
:102EC00002461A60D7F8B03008331B68002B0ADDC1
:102ED000D7F8B03008331A68D7F8B0300833A2F505
:102EE00080321A6009E0D7F8B03008331A68D7F892
:102EF000B030083302F580321A6000231846E037FC
:102F0000BD46BDE8B08F00BF80B58EB000AF786021
:102F10003960022387F82E30644B93F82430002B5D
:102F200006D0002000F018FA012387F82F3002E0C5
:102F3000002387F82F3007F10C031846FEF72EFC0C
:102F400007F10F031846FEF7BDFC07F1080318460A
:102F5000FEF764FD07F10A031846FEF7F7FD534B31
:102F60009B7A87F82D3007F10E031846FEF7F0FE26
:102F700000237B630AE0002239687868FFF7B6FB1C
:102F80000346002B08D07B6B01337B6397F82E3010
:102F90007A6B9A42EFDB00E000BF97F82E307A6B35
:102FA0009A4202D100233B6345E000237B630DE09E
:102FB00007F1100107F11C0301221846FFF796FBE9
:102FC0000346002B08D07B6B01337B6397F82E30D0
:102FD0007A6B9A42ECDB00E000BF97F82E307A6BF8
:102FE0009A4202D100233B6325E007F11003194602
:102FF0003868FFF72DFA034687F82C3007F11C03D9
:1030000019467868FFF7A8FA034687F82B300023A3
:103010003B6397F82B30002B03D13B6B43F001034C
:103020003B6397F82C30002B04D13B6B43F0020339
:103030003B6300E000BF1D4BFF221A721B4BFF22B7
:103040005A721A4BFF22DA72184B4FF6FF72DA816E
:10305000164BFF229A72154BFF221A74134B012252
:103060001A73BB891846FEF7CDFBFB7B1846FEF7AB
:1030700063FC3B891846FEF70FFD7B891846FEF777
:103080007FFD97F82D301846FEF7C6FEBB7B18462D
:10309000FEF770FE97F82F30002B02D0012000F0D1
:1030A0005BF93B6B18463837BD4680BD00000020F9
:1030B00080B588B004AF03463A60FB800B46BB8006
:1030C0003B68002B02D14FF0FF334EE0294B9B7A37
:1030D000002B02D14FF0FF3347E0FB881B0A9BB265
:1030E000DBB23B73FB88DBB27B737B7B1A46BB880E
:1030F0001344204A52685289934202DD4FF0FF3355
:1031000033E01C4B5B681B785B0099B2194B1B6862
:103110001B7E1A46052302930223019307F10C0339
:1031200000930123144808F0F1F90346002B02D064
:103130004FF0FF3319E00F4B5B681B785B0099B2CF
:103140000C4B1B685B7D1A4605230293BB880193D9
:103150003B6800930123084808F0D8F90346002B88
:1031600002D04FF0FF3300E0002318461037BD4671
:1031700080BD00BF000000203403002080B588B06F
:1031800004AF03463A60FB800B46BB803B68002BD4
:1031900002D14FF0FF334EE0294B9B7A002B02D136
:1031A0004FF0FF3347E0FB881B0A9BB2DBB23B7357
:1031B000FB88DBB27B737B7B1A46BB881344204AB7
:1031C00052685289934202DD4FF0FF3333E01C4BCB
:1031D0005B681B785B0099B2194B1B681B7E1A4613
:1031E000052302930223019307F10C0300930123AB
:1031F000144808F08BF90346002B02D04FF0FF3340
:1032000019E00F4B5B681B785B0099B20C4B1B6895
:103210005B7D1A4605230293BB8801933B680093AC
:103220000123084808F06CFA0346002B02D04FF047
:10323000FF3300E0002318461037BD4680BD00BFB5
:10324000000000203403002080B58EB004AFB960C8
:1032500011461A460346FB810B46BB811346FB8091
:103260003B4B93F82530002B02D04FF0FF336BE03F
:10327000BB68002B02D14FF0FF3365E00023FB84D5
:1032800034E0FA89FB8CD31A102BA8BF1023BB841F
:10329000FB8CBA681A44B98CFB8C1846FFF708FF00
:1032A0000346002B02D04FF0FF334DE007F114022C
:1032B000B98CFB8C1846FFF761FF0346002B02D048
:1032C0004FF0FF3340E0FB8CBA681344BA8C07F12F
:1032D000140118460CF0E0FC0346002B02D06FF0FE
:1032E000010331E0FA8CBB8C1344FB84FA8CFB891C
:1032F0009A42C6D3BB891B0A9BB2DBB23B74BB8923
:10330000DBB27B74124B5B681B785B0099B2104B8D
:103310001B689B7E1A46052302930223019307F143
:103320001003009301230B4808F0F0F80346002B2C
:1033300002D04FF0FF3307E0054B012283F8252030
:10334000034AFB88D384002318462837BD4680BD36
:10335000000000203403002080B588B004AF03468D
:10336000FB712E4B93F82430FA799A4201D1002355
:1033700050E0FB79002B2FD0284B93F82530002B01
:1033800002D14FF0FF3345E00020FDF763FE00203F
:10339000FEF778FE214BDB8C1846FEF7F1FB00238D
:1033A000FB731E4B5B681B785B0099B2052302938D
:1033B0000123019307F10F030093012323221848EF
:1033C00008F0A4F8154B012283F824200120FDF712
:1033D00041FEFEF77BF81CE00020FDF73BFE0F4BA3
:1033E0001B7CFB730D4B5B681B785B0099B205235C
:1033F00002930123019307F10F030093012323227A
:10340000074808F083F8054B002283F82420FEF7D4
:103410005DF8002318461037BD4680BD000000202F
:103420003403002080B483B000AF786000BF0C3755
:10343000BD465DF8047B704780B500AF4FF48062F5
:10344000C823044940F6F630FFF7FEFE034618464F
:1034500080BD00BFB826010880B588B000AF034624
:10346000FB806E4A07F1140312681146198002337B
:10347000120C1A706A4A07F110031268114619807B
:103480000233120C1A70674A07F10C0312681146D6
:1034900019800233120C1A70634A07F1080312688C
:1034A000114619800233120C1A70FB8803F00303D3
:1034B00020333B4413F80C3C3B77FB88DB089BB282
:1034C00003F0030320333B4413F80C3C7B77FB8869
:1034D0009B099BB203F0030320333B4413F80C3CDD
:1034E000BB77FB8803F0030320333B4413F8103C05
:1034F0003B76FB88DB089BB203F0030320333B449D
:1035000013F8103C7B76FB889B099BB203F0030306
:1035100020333B4413F8103CBB7607F11C031A46DA
:10352000032140F22640FFF7C3FD0346002B02D0E3
:103530004FF0FF336EE007F118031A46032140F203
:103540002A40FFF7B5FD0346002B02D04FF0FF33B2
:1035500060E007F11C0307F10C02126811461980A4
:103560000233120C1A7007F1180307F108021268EF
:10357000114619800233120C1A70FB8803F0040301
:10358000002B09D03B7F43F00103DBB23B773B7E4E
:1035900043F00103DBB23B76FB8803F02003002BF2
:1035A00009D07B7F43F00103DBB27B777B7E43F066
:1035B0000103DBB27B76FB8803F48073002B09D018
:1035C000BB7F43F00103DBB2BB77BB7E43F001035B
:1035D000DBB2BB7607F11C031A4603214FF4886067
:1035E000FFF766FD0346002B02D04FF0FF3311E0DA
:1035F00007F118031A46032140F23140FFF758FD46
:103600000346002B02D04FF0FF3303E0074AFB884C
:103610001381002318462037BD4680BDC825010808
:10362000CC250108D0250108D4250108D0020020AE
:103630002DE9B04F8CB000AFF861804B1B8903F0CF
:1036400003039B00FA6913441B687B627B4B1B8955
:1036500003F00403002B02D07B6A5B427B62774B52
:103660001B89DB089BB203F003039B00FA69134438
:103670001B68BB62714B1B8903F02003002B02D037
:10368000BB6A5B42BB626D4B1B899B099BB203F01B
:1036900003039B00FA6913441B68FB62674B1B8999
:1036A00003F48073002B02D0FB6A5B42FB627B6AEF
:1036B000DA173B617A61624BD7E904010A4603FBE2
:1036C00002F20023C7E90401014601FB03F313449E
:1036D0005B4A3969A1FB02AB5B449B464FF0000299
:1036E0004FF000034FEA9A7242EA8B024FEAAB7343
:1036F00013467B62BB6ADA17BB60FA60504BD7E9AE
:1037000002AB5A4603FB02F20023514601FB03F3CE
:1037100013444B4A5146A1FB02894B4499464FF052
:1037200000024FF000034FEA987242EA89024FEA22
:10373000A9731346BB62FB6ADA173B607A60404BA1
:10374000D7E900894A4603FB02F20023414601FB08
:1037500003F313443A4A4146A1FB02452B441D465C
:103760004FF000024FF00003A20F42EA8502AB17B0
:103770001346FB627B6A1B16DBB287F820307B6A3C
:103780001B14DBB287F821307B6A1B12DBB287F88F
:1037900022307B6ADBB287F8233007F120031A4618
:1037A00004214FF47470FFF783FC0346002B02D012
:1037B0004FF0FF333CE0BB6A1B16DBB287F82030CA
:1037C000BB6A1B14DBB287F82130BB6A1B12DBB269
:1037D00087F82230BB6ADBB287F8233007F1200379
:1037E0001A4604214FF47570FFF762FC0346002B64
:1037F00002D04FF0FF331BE0FB6A1B16DBB287F8E9
:103800002030FB6A1B14DBB287F82130FB6A1B12E5
:10381000DBB287F82230FB6ADBB287F8233007F18E
:1038200020031A4604214FF47670FFF741FC03464B
:1038300018463037BD46BDE8B08F00BFD00200202B
:1038400009E3CA022DE9B04F94B000AF786207F1E6
:103850002E031846FEF73EFAFB8D9BB20022BB6199
:10386000FA614FF000024FF00003F969CB03B96928
:1038700043EA5143B969CA03C7E91223714B1B8953
:1038800003F003039B007A6A13441B68FB636D4BD0
:103890001B8903F00403002B02D0FB6B5B42FB632C
:1038A000684B1B89DB089BB203F003039B007A6A19
:1038B00013441B683B64634B1B8903F02003002BFC
:1038C00002D03B6C5B423B645E4B1B899B099BB205
:1038D00003F003039B007A6A13441B687B64594B13
:1038E0001B8903F48073002B02D07B6C5B427B64EA
:1038F000FB6BDA173B617A61BB6CD7E904010A46BE
:1039000002FB03F2FB6CC7E90401014601FB03F370
:103910001344BA6C3969A2FB01AB5B449B464FF080
:1039200000024FF000034FEA9A7242EA8B024FEA1C
:10393000AB731346FB633B6CDA17BB60FA60BB6C7E
:10394000D7E902AB5A4602FB03F2FB6C514601FB7E
:1039500003F31344BA6C5146A2FB01894B449946C8
:103960004FF000024FF000034FEA987242EA8902DA
:103970004FEAA97313463B647B6CDA173B607A60AD
:10398000BB6CD7E900894A4602FB03F2FB6C414657
:1039900001FB03F31344BA6C4146A2FB01452B44DF
:1039A0001D464FF000024FF00003A20F42EA8502CD
:1039B000AB1713467B64FB6B1B16DBB287F830300A
:1039C000FB6B1B14DBB287F83130FB6B1B12DBB2D5
:1039D00087F83230FB6BDBB287F833303B6C1B1659
:1039E000DBB287F834303B6C1B14DBB287F8353020
:1039F0003B6C1B12DBB287F836303B6CDBB287F8CE
:103A000037307B6C1B16DBB287F838307B6C1B14AD
:103A1000DBB287F839307B6C1B12DBB287F83A30A7
:103A20007B6CDBB287F83B3007F130031A460C2180
:103A30004FF42570FFF73CFB034618465037BD4650
:103A4000BDE8B08FD002002080B588B000AF03463B
:103A5000FB801F4A07F1100307CA83E80700FB88B1
:103A6000C82B02D94FF0FF332EE0FB88C82292FB0F
:103A7000F3F39BB2013BFB83FB8B1B0A9BB2DBB2D4
:103A80003B72FB8BDBB27B7207F108031A46022103
:103A900040F21620FFF70CFB0346002B02D04FF03C
:103AA000FF3311E007F110031A460C2140F6C12044
:103AB000FFF7FEFA0346002B02D04FF0FF3303E07E
:103AC000044AFB889381002318462037BD4680BDF9
:103AD000D8250108D002002080B586B000AF03468B
:103AE0000A46FB711346BB80FB7903F00703002BEA
:103AF00003D0BB88B3F5C86F02D94FF0FF330BE199
:103B0000BB8807EE903AB8EE677ADFED856AC7EEBC
:103B1000267AC7ED047A07F10B031846FDF7D2FEAB
:103B2000FB7A023B0E2B7DD801A252F823F000BF96
:103B30006D3B0008253C00089B3B0008253C000825
:103B4000253C0008253C0008C93B0008253C00082E
:103B5000253C0008253C0008253C0008253C0008C1
:103B6000253C0008253C0008F73B0008D7ED047A07
:103B70009FED6C7A67EE877AFCEEE77A17EE903A63
:103B8000FB82D7ED047A9FED687A67EE877AFCEEC8
:103B9000E77A17EE903ABB8247E0D7ED047A9FEDC3
:103BA000637A67EE877AFCEEE77A17EE903AFB824B
:103BB000D7ED047A9FED5E7A67EE877AFCEEE77ABE
:103BC00017EE903ABB8230E0D7ED047A9FED597A38
:103BD00067EE877AFCEEE77A17EE903AFB82D7ED34
:103BE000047A9FED557A67EE877AFCEEE77A17EE56
:103BF000903ABB8219E0D7ED047A9FED507A67EED8
:103C0000877AFCEEE77A17EE903AFB82D7ED047ADA
:103C10009FED4B7A67EE877AFCEEE77A17EE903AE3
:103C2000BB8202E04FF0FF3376E0FB8A1B0A9BB2B7
:103C3000DBB23B73FB8ADBB27B73BB8A1B0A9BB292
:103C4000DBB2BB73BB8ADBB2FB73FB7903F001030E
:103C5000002B1CD007F10C031A4602214FF4EA7026
:103C6000FFF726FA0346002B02D04FF0FF3353E054
:103C700007F10C0302331A4602214FF49270FFF74A
:103C800017FA0346002B02D04FF0FF3344E0FB79D4
:103C900003F00203002B1CD007F10C031A4602218B
:103CA0004FF4EC70FFF704FA0346002B02D04FF0FC
:103CB000FF3331E007F10C0302331A4602214FF4BF
:103CC0009470FFF7F5F90346002B02D04FF0FF3355
:103CD00022E0FB7903F00403002B1CD007F10C0356
:103CE0001A4602214FF4EE70FFF7E2F90346002B6B
:103CF00002D04FF0FF330FE007F10C0302331A46F6
:103D000002214FF49670FFF7D3F90346002B02D03F
:103D10004FF0FF3300E0002318461837BD4680BD42
:103D20000000484300008046000040460000004676
:103D30000000C045000080450000404500000045EF
:103D40000000C04480B584B000AF0346FB7100237F
:103D5000FB73FB7903F00103002B04D0FB7B43F0E2
:103D60003003DBB2FB73FB7903F00203002B04D0BA
:103D7000FB7B43F00C03DBB2FB73FB7903F0040322
:103D8000002B04D0FB7B43F00303DBB2FB7307F192
:103D90000F031A4601214FF4A470FFF789F9034677
:103DA00018461037BD4680BD80B584B000AF0346CD
:103DB000FB71FB79002B02D10123FB7104E0FB793D
:103DC000042B01D90423FB71FB79013BDBB2FB73AC
:103DD00007F10F031A46012140F24F10FFF768F96F
:103DE000034618461037BD4680BD000080B584B03C
:103DF00000AF0346FB80FB880C4AA2FB03239B0811
:103E0000FB81FB891B0A9BB2DBB23B73FB89DBB2F4
:103E10007B7307F10C031A4602214FF4EF70FFF792
:103E200047F9034618461037BD4680BDCDCCCCCCF3
:103E300080B584B000AF0346FB80FB880C4AA2FB30
:103E400003239B08FB81FB891B0A9BB2DBB23B73FC
:103E5000FB89DBB27B7307F10C031A4602214FF496
:103E6000ED70FFF725F9034618461037BD4680BDB3
:103E7000CDCCCCCC80B584B000AF78600B467B80D5
:103E80007B68134A82FB03129211DB17D31A7A88DC
:103E900002FB03F3FB60FB681B16DBB23B72FB68A3
:103EA0001B14DBB27B72FB681B12DBB2BB72FB68BC
:103EB000DBB2FB7207F108031A4604214FF4AE701F
:103EC000FFF7F6F8034618461037BD4680BD00BF21
:103ED000D34D621080B584B000AF0346FB80FB88F1
:103EE0000C4AA2FB03239B08FB80FB881B0A9BB2A6
:103EF000DBB23B73FB88DBB27B7307F10C031A4622
:103F000002214FF4AD70FFF7D3F80346184610377F
:103F1000BD4680BDCDCCCCCC80B584B000AF0346CF
:103F2000FB80FB880C4AA2FB03239B08FB80FB88D9
:103F30001B0A9BB2DBB23B73FB88DBB27B7307F1DE
:103F40000C031A4602214FF4AC70FFF7B1F8034698
:103F500018461037BD4680BDCDCCCCCC80B586B0E0
:103F600000AF0346FB8002233B73CA237B73E3232A
:103F7000BB730923FB7307F10C031A460421682065
:103F8000FFF796F8A3233B73FB8803F04003002B55
:103F900006D0C0237B73C823BB73C223FB7305E029
:103FA000A3237B73A323BB73A323FB73FB8803F4BB
:103FB000C073002B06D0C4233B74CC237B74C62370
:103FC000BB7405E0A3233B74A3237B74A323BB74BE
:103FD000A323FB74A3233B75A3237B7507F10C0379
:103FE0001A460A2140F6A720FFF762F8FB8803F083
:103FF0000303002B02D020233B7301E0D8233B7343
:1040000007F10C031A46012140F6B620FFF750F8DD
:10401000FB8803F02003002B03D0012000F0C6F83A
:1040200002E0002000F0C2F8FB8803F4C073002B0C
:104030001DD0FB8803F48073002B08D0B2233B73A0
:104040008B237B73B623BB739B23FB7307E0B023E7
:104050003B7380237B73B423BB739023FB7307F103
:104060000C031A46042140F6A220FFF721F8FB8832
:1040700003F00103002B25D0F8233B7307F10C0359
:104080001A4601214FF40B60FFF712F8FA210720BE
:10409000FFF722FD0720FFF755FE0120FFF784FE02
:1040A0006420FFF7A3FE4FF4FA70FFF7C1FEC821AA
:1040B0003C48FFF7DFFE2820FFF70CFF0A20FFF740
:1040C0002BFF09E0D8233B7307F10C031A460121AB
:1040D0004FF40B60FEF7ECFFFB8803F00203002BAC
:1040E00002D0D9233B7301E0D8233B7307F10C03C3
:1040F0001A46012140F23D70FEF7DAFFFB8803F01B
:104100000403002B03D0012000F080F802E000201F
:1041100000F07CF8FB8803F01003002B03D0012093
:1041200000F09BF802E0002000F097F8FB8843F0D5
:1041300008039AB21C4B5A81FDF7C8F91A4B0022AA
:104140009A73FB8803F04003002B05D0164B9B7B32
:104150000633DAB2144B9A73FB8803F4C073002B56
:1041600005D0114B9B7B0633DAB20F4B9A73FB8859
:1041700003F01403002B05D00B4B9B7B1033DAB2FA
:10418000094B9A73FB8803F00303002B05D0064B01
:104190009B7B0433DAB2044B9A730023184618371A
:1041A000BD4680BD09E3CA02D002002080B588B0B8
:1041B00000AF0346FB71FB79002B0FD0114A07F1CA
:1041C000140307CA03C31A7007F114031A4609211E
:1041D0004FF49760FEF76CFF03460EE00A4A07F1C2
:1041E000080307CA03C31A7007F108031A46092116
:1041F0004FF49760FEF75CFF034618462037BD4634
:1042000080BD00BFE4250108F025010880B584B019
:1042100000AF0346FB71FB79002B08D0C0233B7332
:10422000C2237B73C423BB73C623FB7306E007F171
:104230000C0304228B2118460BF03EFD07F10C0302
:104240001A46042140F69820FEF732FFFDF73EF9AA
:10425000034618461037BD4680BD80B584B000AF18
:104260000346FB71FB79002B08D020233B732823E6
:104270007B733023BB733823FB7306E007F10C0319
:104280000422A32118460BF017FD07F10C031A4670
:10429000042140F69E20FEF70BFFFDF717F90346B9
:1042A00018461037BD4680BD80B584B000AF786039
:1042B0007B6803331B7823F03F03FB737B68033376
:1042C0001B7803F03F03BB737B6801331B7803F05B
:1042D0000103002B12D0BB7BDB087B73BB7B03F09D
:1042E0000703DBB201333B73104B1B68002B05D077
:1042F0000E4B1B68397B7A7B104698477B680133ED
:104300001B7803F00803002B0AD0084B5B68002BD6
:1043100006D0064B5B68FA7B9209D2B210469847EA
:10432000002318461037BD4680BD00BFD0020020D4
:1043300080B592B000AFF860B9607A603B6000234E
:1043400087F847303B6D00221A80B14B9B7B1846A3
:1043500007F120037A6D1946FDF7F8FD0346002B9F
:1043600002D04FF0FF334EE1A94B5B8903F01403F9
:10437000002B00F08A8097F820301A0697F8213039
:104380001B041A4397F822301B02134397F823208B
:104390001A437B681A6097F824301A0697F825307C
:1043A0001B041A4397F826301B021A4397F827304C
:1043B00019467B6804330A431A6097F828301A06B6
:1043C00097F829301B041A4397F82A301B021A4326
:1043D00097F82B3019467B6808330A431A6097F820
:1043E0002C301A0697F82D301B041A4397F82E30FC
:1043F0001B021A4397F82F3019467B680C330A4387
:104400001A6097F84730103387F847307B681B688D
:104410001B143B617B6804331B681B147B617B6846
:1044200008331B681B14BB617B680C331B681B14AF
:10443000FB613B693A6903FB02F27B69796901FB25
:1044400003F31A44BB69B96901FB03F31A44FB691E
:10445000F96901FB03F313443B643B6CB3F1706FE8
:1044600003DB3B6CB3F1885F07DDFDF72FF83B6D95
:1044700000221A804FF0FF33C5E03B6DB3F90030E6
:1044800043F480731AB23B6D1A80614B5B8903F071
:104490004003002B4FD097F8473048333B4413F884
:1044A000283C1BB21B021AB297F84730013348333D
:1044B0003B4413F8283C1BB213431AB2BB681A8062
:1044C00097F84730023348333B4413F8283C1BB27B
:1044D0001B0219B297F84730033348333B4413F8B3
:1044E000283C1AB2BB6802330A4312B21A8097F80A
:1044F0004730043348333B4413F8283C1BB21B02BB
:1045000019B297F84730053348333B4413F8283C39
:104510001AB2BB6804330A4312B21A8097F84730C4
:10452000063387F847303B6DB3F9003043F008039A
:104530001AB23B6D1A80364B5B8903F4C073002BB3
:104540004FD097F8473048333B4413F8283C1BB210
:104550001B021AB297F84730013348333B4413F833
:10456000283C1BB213431AB2FB681A8097F84730F5
:10457000023348333B4413F8283C1BB21B0219B2E8
:1045800097F84730033348333B4413F8283C1AB2BA
:10459000FB6802330A4312B21A8097F8473004339B
:1045A00048333B4413F8283C1BB21B0219B297F85E
:1045B0004730053348333B4413F8283C1AB2FB68B4
:1045C00004330A4312B21A8097F84730063387F84B
:1045D00047303B6DB3F9003043F070031AB23B6DC6
:1045E0001A800B4B5B8903F00303002B07D097F86D
:1045F000473007F1200213441846FFF755FE38688C
:10460000FEF710FF002318464837BD4680BD00BFA7
:10461000D002002080B58AB000AF07F10C0207F18C
:10462000180311461846FEF76FFC78627B6A032B6D
:1046300050D107F108031846FDF714FBBB6907EEDC
:10464000903AB8EEE77AD7ED027A67EE277AFDEE78
:10465000E77A17EE903ABB61FB6907EE903AB8EE45
:10466000E77AD7ED027A67EE277AFDEEE77A17EE62
:10467000903AFB613B6A07EE903AB8EEE77AD7EDE5
:10468000027A67EE277AFDEEE77A17EE903A3B6200
:1046900007F118031846FEF7CBFFBB1D1846FDF7C0
:1046A00019FBFB68FA8802FB03F3FB603B69FA889D
:1046B00002FB03F33B617B69FA8802FB03F37B6136
:1046C00007F10C031846FFF7BDF805480BF004FA94
:1046D000002301E04FF0FF3318462837BD4680BD68
:1046E0001426010880B485B000AF78607B6893F928
:1046F0000030002B02DD0023FB812DE07B6893F965
:104700000030002B02DA0423FB8125E07B680133B3
:1047100093F90030002B02DD0123FB811CE07B6854
:10472000013393F90030002B02DA0523FB8113E0FB
:104730007B68023393F90030002B02DD0223FB81FA
:104740000AE07B68023393F90030002B02DA06237B
:10475000FB8101E00723FB81FB8918461437BD4626
:104760005DF8047B704780B584B000AF78607868EE
:10477000FFF7B8FF0346FB817B6803331846FFF75A
:10478000B1FF0346DB001AB2B7F90E3013431BB278
:10479000FB817B6806331846FFF7A4FF03469B01A5
:1047A0001AB2B7F90E3013431BB2FB81FB891846CE
:1047B0001037BD4680BD000080B582B000AFFCF769
:1047C000B7FC78607B68002B02D04FF0FF335DE0D0
:1047D0007820FDF721FB78607B68002B02D06FF01A
:1047E000010353E07820FDF7C5FA78607B68002B61
:1047F00002D06FF0020349E06420FDF7C1F9786050
:104800007B68002B02D06FF003033FE0FEF714FE3D
:1048100078607B68002B02D06FF0040336E01D48FF
:10482000FFF7A1FF03461846FEF716FE78607B6887
:10483000002B02D06FF0050328E040F27310FFF761
:104840008DFB78607B68002B02D06FF006031DE0C3
:104850006420FFF7F9F878607B68002B02D06FF0D6
:10486000070313E0FFF7D6FE78607B68002B02D0C9
:104870006FF008030AE00120FEF76EFD78607B68A8
:10488000002B02D06FF0090300E000231846083720
:10489000BD4680BD2C000020B0B594B002AFF860DA
:1048A000B9607A604FF000037B644FF000033B6413
:1048B0004FF00003FB634FF00003BB6307F11404E8
:1048C00007F1180207F1280107F1300007F1110381
:1048D000019307F1120300932346FFF729FD0346D6
:1048E000002B02D04FF0FF33BDE0B7F912309BB27E
:1048F00003F48073002B00F0B580BB6907EE903A9B
:10490000B8EEE77ADFED5E6AC7EE267AC7ED117A78
:10491000FB6907EE903AB8EEE77ADFED596AC7EE29
:10492000267AC7ED107A3B6A07EE903AB8EEE77A3E
:10493000DFED536AC7EE267AC7ED0F7A7B6A07EE82
:10494000903AB8EEE77ADFED4E6AC7EE267AC7ED09
:104950000E7AD7ED107AB8EE007A27EE877AD7ED87
:104960000E7A27EE277AD7ED117A77EEA76AD7ED80
:104970000F7A66EEA77A77EE277A17EE900AFBF7A2
:10498000E3FD02460B4643EC102B0CF071FF51EC9B
:10499000100B37A3D3E90023FBF72EFE02460B468C
:1049A00010461946FCF720F90246FB681A60B7F971
:1049B00034301846FBF7B6FD2FA3D3E90023FBF7ED
:1049C00045FF02460B4610461946FCF70DF9024614
:1049D000BB681A6097ED107AD7ED0F7A27EE277A29
:1049E000D7ED116AD7ED0E7A66EEA77A77EE277AC1
:1049F00077EEA77A17EE900AFBF7A6FD04460D4660
:104A0000D7ED117A27EEA77AD7ED107A67EEA77A5D
:104A100037EE277AD7ED0F7A67EEA77A37EE677A07
:104A2000D7ED0E7A67EEA77A77EE677A17EE900ADF
:104A3000FBF78AFD02460B4643EC112B45EC104B6D
:104A40000CF04AFF51EC100B09A3D3E90023FBF74C
:104A5000D3FD02460B4610461946FCF7C5F8024640
:104A60007B681A60002318464837BD46B0BD00BFBA
:104A70006666666666A64C40666666666666304032
:104A80000000804E80B400AF00BFBD465DF8047BDF
:104A90007047000080B586B002AF0346FB7100236B
:104AA0003B73FB797B7307F10C02642300930223B1
:104AB0007821034806F02CFC00BF1037BD4680BDAE
:104AC000E002002080B586B002AF0346FB714023B0
:104AD0003B73FB797B7307F10C0264230093022381
:104AE0007821034806F014FC00BF1037BD4680BD96
:104AF000E002002080B582B000AF03460A46FB7199
:104B00001346BB71FB7963F04F03DBB21846FFF726
:104B1000C1FFBB791B09DBB243F01003DBB21846BF
:104B2000FFF7B8FFBB7903F00F03DBB21846FFF7BE
:104B3000B1FF00BF0837BD4680BD80B582B000AF71
:104B40000023BB7114E0BB7900211846FFF7D2FFA8
:104B50000023FB7105E00020FFF7B4FFFB79013370
:104B6000FB7197F90730002BF5DABB790133BB7184
:104B7000BB79072BE7D900BF00BF0837BD4680BD12
:104B800080B584B000AF0346FB710B46BB71134682
:104B90007B71BB79BB7336E0FB79013BDBB25B0019
:104BA000DAB2BB7B013BDBB2DB00DBB2194610465D
:104BB000FFF7A0FF0023FB7305E00020FFF782FF53
:104BC000FB7B0133FB73FB7B072BF6D9FB795B0087
:104BD000DBB2013BDAB2BB7B013BDBB2DB00DBB219
:104BE00019461046FFF786FF0023FB7305E00020FF
:104BF000FFF768FFFB7B0133FB73FB7B072BF6D9C9
:104C0000BB7B0133BB73BA7B7B799A42C4D900BFAB
:104C100000BF1037BD4680BD80B584B000AF0346ED
:104C2000FB710B46BB7113467B71FB79013BDBB219
:104C30005B00DAB2BB79013BDBB2DB00DBB21946C9
:104C40001046FFF757FF0023FB730EE07B79A3F1BB
:104C50002002FB7B1B4912010A4413441B781846AF
:104C6000FFF730FFFB7B0133FB73FB7B072BEDD999
:104C7000FB795B00DBB2013BDAB2BB79013BDBB213
:104C8000DB00DBB219461046FFF734FF0023FB734D
:104C90000FE07B79A3F12002FB7B08330949120165
:104CA0000A4413441B781846FFF70CFFFB7B0133C3
:104CB000FB73FB7B072BECD900BF00BF1037BD4651
:104CC00080BD00BFB032010880B584B000AF03469C
:104CD0003A60FB710B46BB710023FB730EE0BA799F
:104CE000FB7B1344D9B2FB7B3A6813441A78FB79F7
:104CF0001846FFF791FFFB7B0133FB73FB7B3A68A0
:104D000013441B78002BEAD100BF00BF1037BD460B
:104D100080BD80B485B000AF786039600123FB604E
:104D200004E0FB687A6802FB03F3FB603B685A1EF1
:104D30003A60002BF5D1FB6818461437BD465DF884
:104D4000047B704790B585B000AF3A601A460346C1
:104D5000FB710B46BB7113467B710023FB7323E091
:104D6000BA79FB7B1344DCB27A79FB7BD31A013B23
:104D700019460A20FFF7CDFF02463B68B3FBF2F16C
:104D80000E4BA3FB0123DA0813469B0013445B0080
:104D9000CA1AD3B23033DAB2FB7921461846FFF78C
:104DA0003BFFFB7B0133FB73FA7B7B799A42D7D3C2
:104DB00000BF00BF1437BD4690BD00BFCDCCCCCCEA
:104DC00080B500AF642005F0B1FDFFF75BFE642005
:104DD00005F0ACFDAE20FFF75DFED520FFF75AFED3
:104DE0008020FFF757FEA820FFF754FE3F20FFF773
:104DF00051FED320FFF74EFE0020FFF74BFE402070
:104E0000FFF748FEA120FFF745FEC820FFF742FE4E
:104E1000DA20FFF73FFE1220FFF73CFE8120FFF76C
:104E200039FECF20FFF736FED920FFF733FEF12001
:104E3000FFF730FEDB20FFF72DFE3020FFF72AFEC4
:104E4000A420FFF727FEA620FFF724FE8D20FFF702
:104E500021FE1420FFF71EFEAF20FFF71BFEFFF719
:104E60006CFE642005F062FD00BF80BD80B586B099
:104E700000AFF860B9607A603B60FB68BA681A609E
:104E8000FB687A685A60FB683A689A60FB683A8CFB
:104E90009A81FB684FF4FA721A61BB685B68013350
:104EA0000D4AB2FBF3F37B61BB681B687A69013A78
:104EB000DA627B695A1EBB68DA607968B86807F005
:104EC000F1FFFB681B691946F86800F007F800BF9E
:104ED0001837BD4680BD00BF0045330080B485B0A3
:104EE00000AF786039603B68A82203FB02F27B6860
:104EF0001B685B680133B2FBF3F3FB607B685B68A4
:104F0000002B02D0042B06D00BE07B681B681B68CB
:104F1000FA685A6305E07B681B681B68FA689A6345
:104F200000BF7B683A681A6100BF1437BD465DF860
:104F3000047B704780B58EB000AF07F124030022D8
:104F40001A605A609A60DA601A6100233B62AC4BC7
:104F50001B6BAB4A43F010031363A94B1B6B03F0AD
:104F600010033B623B6A0023FB61A54B1B6BA44A09
:104F700043F004031363A24B1B6B03F00403FB61B8
:104F8000FB690023BB619E4B1B6B9D4A43F02003D2
:104F900013639B4B1B6B03F02003BB61BB690023B6
:104FA0007B61974B1B6B964A43F080031363944BD2
:104FB0001B6B03F080037B617B6900233B61904B9B
:104FC0001B6B8F4A43F0010313638D4B1B6B03F084
:104FD00001033B613B690023FB60894B1B6B884AE3
:104FE00043F002031363864B1B6B03F00203FB6069
:104FF000FB680023BB60824B1B6B814A43F040037C
:1050000013637F4B1B6B03F04003BB60BB68002343
:105010007B607B4B1B6B7A4A43F008031363784B2E
:105020001B6B03F008037B607B6800222A21754814
:1050300005F0F8FF00224FF20201734805F0F2FF7D
:10504000002248F20B01714805F0ECFF00224DF2FE
:1050500080516F4805F0E6FF00224FF400416D4893
:1050600005F0E0FF42F21F037B620323BB620023D3
:10507000FB6207F124031946654805F01FFE42F262
:1050800015137B620323BB620023FB6207F1240339
:1050900019465C4805F012FE4FF6BF737B6203238E
:1050A000BB620023FB6207F1240319465A4805F04E
:1050B00005FE2A237B620123BB620023FB620023DF
:1050C0003B6307F1240319464E4805F0F7FD49F606
:1050D00010037B620323BB620023FB6207F12403FE
:1050E00019464E4805F0EAFD40F235337B62032352
:1050F000BB620023FB6207F124031946424805F016
:10510000DDFD4FF202037B620123BB620023FB62E1
:1051100000233B6307F1240319463B4805F0CEFD0D
:1051200048F20B037B620123BB620023FB62002376
:105130003B6307F124031946344805F0BFFD4DF2E7
:1051400080537B620123BB620023FB6200233B632D
:1051500007F1240319462E4805F0B0FD4FF44063D3
:105160007B624FF44413BB620023FB6207F124030C
:105170001946254805F0A2FD44F69B437B620323B4
:10518000BB620023FB6207F124031946214805F0A6
:1051900095FD4FF400437B620123BB620023FB6259
:1051A00000233B6307F1240319461A4805F086FDE6
:1051B00041F6F4537B620323BB620023FB6207F1D9
:1051C00024031946114805F079FD4FF400537B6222
:1051D0004FF44413BB620023FB6207F1240319461A
:1051E0000A4805F06BFD00220021282005F09DFCF7
:1051F000282005F0B6FC00BF3837BD4680BD00BF93
:10520000003802400008024000040240001802403A
:1052100000100240000C0240001402400000024056
:1052200080B500AF124B134A1A60114B124A5A60F4
:105230000F4B00229A600E4B0022DA600C4B4FF4A9
:1052400080421A610A4B00225A61094B00229A617E
:10525000074B0022DA61064B00221A62044805F06F
:1052600013FF0346002B01D002F0A2FB00BF80BD5C
:10527000E002002000540040801A060080B500AF14
:10528000124B134A1A60114B124A5A600F4B0022FC
:105290009A600E4B0022DA600C4B4FF480421A6188
:1052A0000A4B00225A61094B00229A61074B0022E7
:1052B000DA61064B00221A62044805F0E5FE034657
:1052C000002B01D002F074FB00BF80BD340300202E
:1052D000005C0040A086010080B58CB000AF786013
:1052E00007F11C0300221A605A609A60DA601A61A2
:1052F0007B681B68424A93422CD10023BB61414B1F
:105300001B6B404A43F0020313633E4B1B6B03F0DD
:105310000203BB61BB69C023FB6112233B62002314
:105320007B620323BB620423FB6207F11C03194663
:10533000354805F0C3FC00237B61324B1B6C314ABE
:1053400043F4001313642F4B1B6C03F400137B61B5
:105350007B6950E07B681B682C4A93424BD1002349
:105360003B61284B1B6B274A43F004031363254B17
:105370001B6B03F004033B613B690023FB60214B83
:105380001B6B204A43F0010313631E4B1B6B03F09E
:105390000103FB60FB684FF40073FB6112233B6267
:1053A00000237B620323BB620423FB6207F11C031F
:1053B0001946174805F082FC4FF48073FB611223F5
:1053C0003B6200237B620323BB620423FB6207F181
:1053D0001C0319460F4805F071FC0023BB60094B04
:1053E0001B6C084A43F400031364064B1B6C03F464
:1053F0000003BB60BB6800BF3037BD4680BD00BF47
:10540000005400400038024000040240005C0040AC
:10541000000802400000024080B582B000AF786012
:105420007B68144A93420BD07B68134A934207D09F
:105430007B68124A934203D07B68114A934202D19F
:10544000786804F0D3FD7B680E4A93420ED10E4873
:10545000FAF70EFF03469AB264230B49094808F095
:10546000E1FC02220949074808F067FD00BF083740
:10547000BD4680BDD0090020600A0020A80A002097
:1054800088090020180A00204C0000204804002051
:10549000B0B582B000AF03460A46FB711346BB713C
:1054A000BA79FB799A421BD9FB7905331846FBF789
:1054B00039F804460D46BB791846FBF723F8024637
:1054C0000B4643EC112B45EC104B0CF043FA53EC1C
:1054D000102B10461946FBF767FB0346DBB220E0B2
:1054E000BA79FB799A421BD2FB79053B1846FBF748
:1054F00019F804460D46BB791846FBF703F8024637
:105500000B4643EC112B45EC104B0CF0F9F953EC26
:10551000102B10461946FBF747FB0346DBB200E0B1
:10552000FB7918460837BD46B0BD000080B500AF16
:10553000064803F0EFFA064803F0ECFA054803F0DA
:10554000E9FA054803F0E6FA00BF80BD70000020CC
:10555000A000002088000020B8000020000000000B
:10556000B0B58CB000AF0446084611461A46234633
:10557000FB710346BB710B467B7113463B71A84B15
:105580001B687B6297F84030002B02D09FEDA57A14
:1055900001E09FEDA57AD7ED097A77EE277AC7ED7E
:1055A0000B7A0023BB62D7ED0B7A9FEDA07AF4EE65
:1055B000C77AF1EE10FA08DDD7ED0B7A9FED9C7AF1
:1055C00077EEC77AC7ED0B7A10E0D7ED0B7A9FED37
:1055D000997AF4EEC77AF1EE10FA07D5D7ED0B7A87
:1055E0009FED937A77EE877AC7ED0B7A8C4AFB6A48
:1055F0001360EFE007F10C0207F1100107F114034B
:105600001846FFF749F90346002B40F0E280D7ED3A
:10561000037AF5EEC07AF1EE10FA01DB2B2300E0FD
:105620002D231A4605210320FFF7F6FA7C4BD3ED14
:10563000007AF5EEC07AF1EE10FA01DB2B2300E0E0
:105640002D231A460D210320FFF7E6FA744BD3ED04
:10565000007AF0EEE77AFCEEE77A032317EE902A61
:105660000E210320FFF76EFBD7ED037AF0EEE77A09
:10567000FCEEE77A032317EE902A06210320FFF7BA
:1056800061FBD7ED047AF5EEC07AF1EE10FA01DB9A
:105690002B2300E02D231A4605210420FFF7BCFA36
:1056A000D7ED047AF0EEE77AFCEEE77A032317EE03
:1056B000902A06210420FFF745FBD7ED037A97EDEA
:1056C0000B7A77EE677AC7ED087A386AFAF73CFF0B
:1056D0004FA3D3E90023FAF78FFF02460B46144687
:1056E0001D463B691846FAF72FFF4BA3D3E9002369
:1056F000FAF782FF02460B4620462946FAF7C4FD18
:1057000002460B4610461946FBF76EFA0346FB614C
:10571000F869FAF719FF04460D46474B1B6818460F
:10572000FAF712FF02460B4643EC112B45EC104BE7
:105730000CF010F953EC102B10461946FBF754FAF5
:105740000346BB61D7ED067AFDEEE77A17EE903A95
:105750001AB2FB791146184602F0ACF9D7ED067A79
:10576000FDEEE77A17EE903A1AB2BB791146184669
:1057700002F0A0F9D7ED067AF1EE677AFDEEE77A4E
:1057800017EE903A1AB27B791146184602F092F958
:10579000D7ED067AF1EE677AFDEEE77A17EE903AEA
:1057A0001AB23B791146184602F084F9D7ED087A0F
:1057B000B0EEE77A214BD3ED007AB4EEE77AF1EE62
:1057C00010FA02D8BB6A0133BB620A2005F0AEF8BA
:1057D00000E000BFBB6A142B7FF60CAFFB79002101
:1057E000184602F067F9BB790021184602F062F909
:1057F0007B790021184602F05DF93B7900211846BB
:1058000002F058F900BF3037BD46B0BDAFF300809D
:10581000EC51B81E85EBF13F333333333333D33F91
:10582000EC0500200000B4C20000B4420000344384
:105830000000B443000034C3A0380108A4380108B4
:10584000B0B5D6B004AF04F0FFFF02F047F8FFF7A1
:1058500071FBFFF7E5FCFFF711FD04F07DFD03F0A0
:10586000E7FA03F091FB03F0E3FB03F035FC03F0F0
:1058700001FD03F0ADFD03F019FE03F031FB04F070
:1058800017FD04F03FFD04F091FD04F0B9FD04F0B4
:10589000E1FD03F0B9FCFFF793FA0222B549B648DF
:1058A00008F04BFB0122B549B54808F046FBB54866
:1058B00007F036FA02F03AFA0023C7F8443105F04F
:1058C00029F8C7F83801FEF777FFC7F83401D7F891
:1058D0003431002B1FD0D7F844310133C7F844319D
:1058E000D7F84411A84B83FB01239A10CB17D21A87
:1058F00013469B0013445B00CA1A002A0BD1A34A2B
:1059000001210120FFF7E0F9D7F8442102230B2100
:105910000120FFF717FAD7F83431002BD3D1FFF766
:105920000CF99B4A01210120FFF7CEF904F0F2FFA8
:105930000246D7F83831D31AC7F830310423D7F8E4
:10594000302101210220FFF7FDF9924A05210220B2
:10595000FFF7BAF99049914804F040FA8849904815
:1059600004F03CFA8F49904804F038FA8F49904887
:1059700004F034FA322004F0D9FF894804F086FAA2
:10598000864804F083FA8A4804F080FA864804F0D6
:105990007DFA884B039380230293874B0193012365
:1059A0000093864B00228649002002F007F8854BC1
:1059B00003934FF400430293834B01930823009316
:1059C0007E4B04227E49012001F0F8FF7F4B0393B8
:1059D000022302937E4B0193202300937D4B0822E8
:1059E0007749022001F0EAFF7B4B039308230293DF
:1059F000784B019302230093764B0C2270490320CD
:105A000001F0DCFF40230093724B0022734974487D
:105A1000FFF72CFA802300936E4B04226F497148E4
:105A2000FFF724FA20230093634B00226E496F484E
:105A3000FFF71CFA402300935F4B04226A496C482D
:105A4000FFF714FA402300936A4B00226A496B481F
:105A5000FFF70CFA04F05EFF0346694A1360694AD7
:105A600001210320FFF730F9674A09210320FFF7DE
:105A70002BF9664B1B68664A1360664803F04AF8C8
:105A8000654803F047F8052201210120FFF778F867
:105A900004F040FF0346614A136004F03BFFC7F87F
:105AA0002C015F4804F048FB5E4B1B68D7F82C21A3
:105AB000D31A632B49D95C4A01210120FFF704F96D
:105AC000594A09210120FFF7FFF8574A0121022016
:105AD000FFF7FAF8544A09210220FFF7F5F8504B76
